{"abi":[{"type":"constructor","inputs":[{"name":"tokenAddress","type":"address","internalType":"address"}],"stateMutability":"nonpayable"},{"type":"function","name":"admin","inputs":[],"outputs":[{"name":"","type":"address","internalType":"address"}],"stateMutability":"view"},{"type":"function","name":"approveEscrow","inputs":[{"name":"escrowId","type":"uint256","internalType":"uint256"}],"outputs":[],"stateMutability":"nonpayable"},{"type":"function","name":"createEscrow","inputs":[{"name":"beneficiary","type":"address","internalType":"address"},{"name":"amount","type":"uint256","internalType":"uint256"}],"outputs":[],"stateMutability":"nonpayable"},{"type":"function","name":"escrowCounter","inputs":[],"outputs":[{"name":"","type":"uint256","internalType":"uint256"}],"stateMutability":"view"},{"type":"function","name":"escrows","inputs":[{"name":"","type":"uint256","internalType":"uint256"}],"outputs":[{"name":"id","type":"uint256","internalType":"uint256"},{"name":"beneficiary","type":"address","internalType":"address"},{"name":"amount","type":"uint256","internalType":"uint256"},{"name":"proofRef","type":"string","internalType":"string"},{"name":"state","type":"uint8","internalType":"enum Escrow.State"}],"stateMutability":"view"},{"type":"function","name":"getEscrowState","inputs":[{"name":"escrowId","type":"uint256","internalType":"uint256"}],"outputs":[{"name":"","type":"uint8","internalType":"enum Escrow.State"}],"stateMutability":"view"},{"type":"function","name":"rejectEscrow","inputs":[{"name":"escrowId","type":"uint256","internalType":"uint256"}],"outputs":[],"stateMutability":"nonpayable"},{"type":"function","name":"releaseFunds","inputs":[{"name":"escrowId","type":"uint256","internalType":"uint256"}],"outputs":[],"stateMutability":"nonpayable"},{"type":"function","name":"setWorkflowAddress","inputs":[{"name":"_workflow","type":"address","internalType":"address"}],"outputs":[],"stateMutability":"nonpayable"},{"type":"function","name":"submitProof","inputs":[{"name":"escrowId","type":"uint256","internalType":"uint256"},{"name":"proofRef","type":"string","internalType":"string"}],"outputs":[],"stateMutability":"nonpayable"},{"type":"function","name":"token","inputs":[],"outputs":[{"name":"","type":"address","internalType":"contract FundToken"}],"stateMutability":"view"},{"type":"function","name":"workflowAddress","inputs":[],"outputs":[{"name":"","type":"address","internalType":"address"}],"stateMutability":"view"},{"type":"event","name":"EscrowApproved","inputs":[{"name":"escrowId","type":"uint256","indexed":true,"internalType":"uint256"}],"anonymous":false},{"type":"event","name":"EscrowCreated","inputs":[{"name":"escrowId","type":"uint256","indexed":true,"internalType":"uint256"},{"name":"beneficiary","type":"address","indexed":true,"internalType":"address"},{"name":"amount","type":"uint256","indexed":false,"internalType":"uint256"}],"anonymous":false},{"type":"event","name":"EscrowRejected","inputs":[{"name":"escrowId","type":"uint256","indexed":true,"internalType":"uint256"}],"anonymous":false},{"type":"event","name":"FundsReleased","inputs":[{"name":"escrowId","type":"uint256","indexed":true,"internalType":"uint256"}],"anonymous":false},{"type":"event","name":"ProofSubmitted","inputs":[{"name":"escrowId","type":"uint256","indexed":true,"internalType":"uint256"},{"name":"beneficiary","type":"address","indexed":true,"internalType":"address"},{"name":"proofRef","type":"string","indexed":false,"internalType":"string"}],"anonymous":false}],"bytecode":{"object":"0x608060405234801561000f575f5ffd5b50604051611edb380380611edb83398181016040528101906100319190610155565b3360025f6101000a81548173ffffffffffffffffffffffffffffffffffffffff021916908373ffffffffffffffffffffffffffffffffffffffff1602179055503360035f6101000a81548173ffffffffffffffffffffffffffffffffffffffff021916908373ffffffffffffffffffffffffffffffffffffffff1602179055508060045f6101000a81548173ffffffffffffffffffffffffffffffffffffffff021916908373ffffffffffffffffffffffffffffffffffffffff16021790555050610180565b5f5ffd5b5f73ffffffffffffffffffffffffffffffffffffffff82169050919050565b5f610124826100fb565b9050919050565b6101348161011a565b811461013e575f5ffd5b50565b5f8151905061014f8161012b565b92915050565b5f6020828403121561016a576101696100f7565b5b5f61017784828501610141565b91505092915050565b611d4e8061018d5f395ff3fe608060405234801561000f575f5ffd5b50600436106100b2575f3560e01c80634c17ecbf1161006f5780634c17ecbf1461018a5780634d68282f146101a857806375aab331146101c4578063c7ceafea146101e0578063f851a440146101fe578063fc0c546a1461021c576100b2565b8063012f52ee146100b657806303fce7ef146100ea57806313a9aba2146101065780632af00510146101225780633a49995b1461013e5780634614874e1461016e575b5f5ffd5b6100d060048036038101906100cb9190610fe0565b61023a565b6040516100e195949392919061113c565b60405180910390f35b61010460048036038101906100ff9190610fe0565b61031c565b005b610120600480360381019061011b91906111be565b610492565b005b61013c6004803603810190610137919061124a565b610564565b005b61015860048036038101906101539190610fe0565b61077e565b60405161016591906112a7565b60405180910390f35b610188600480360381019061018391906112c0565b6107a6565b005b610192610b40565b60405161019f91906112fe565b60405180910390f35b6101c260048036038101906101bd9190610fe0565b610b65565b005b6101de60048036038101906101d99190610fe0565b610ddf565b005b6101e8610f55565b6040516101f59190611317565b60405180910390f35b610206610f5b565b60405161021391906112fe565b60405180910390f35b610224610f80565b604051610231919061138b565b60405180910390f35b5f602052805f5260405f205f91509050805f015490806001015f9054906101000a900473ffffffffffffffffffffffffffffffffffffffff1690806002015490806003018054610289906113d1565b80601f01602080910402602001604051908101604052809291908181526020018280546102b5906113d1565b80156103005780601f106102d757610100808354040283529160200191610300565b820191905f5260205f20905b8154815290600101906020018083116102e357829003601f168201915b505050505090806004015f9054906101000a900460ff16905085565b60035f9054906101000a900473ffffffffffffffffffffffffffffffffffffffff1673ffffffffffffffffffffffffffffffffffffffff163373ffffffffffffffffffffffffffffffffffffffff16146103ab576040517f08c379a00000000000000000000000000000000000000000000000000000000081526004016103a29061144b565b60405180910390fd5b5f5f5f8381526020019081526020015f209050600260058111156103d2576103d16110c9565b5b816004015f9054906101000a900460ff1660058111156103f5576103f46110c9565b5b14610435576040517f08c379a000000000000000000000000000000000000000000000000000000000815260040161042c906114b3565b60405180910390fd5b6003816004015f6101000a81548160ff0219169083600581111561045c5761045b6110c9565b5b0217905550817fce085aa2cda59f2e48fad577fb84f3ead9f0c75383ce0b8e84da3d08076beafd60405160405180910390a25050565b60025f9054906101000a900473ffffffffffffffffffffffffffffffffffffffff1673ffffffffffffffffffffffffffffffffffffffff163373ffffffffffffffffffffffffffffffffffffffff1614610521576040517f08c379a00000000000000000000000000000000000000000000000000000000081526004016105189061151b565b60405180910390fd5b8060035f6101000a81548173ffffffffffffffffffffffffffffffffffffffff021916908373ffffffffffffffffffffffffffffffffffffffff16021790555050565b5f5f5f8581526020019081526020015f209050806001015f9054906101000a900473ffffffffffffffffffffffffffffffffffffffff1673ffffffffffffffffffffffffffffffffffffffff163373ffffffffffffffffffffffffffffffffffffffff1614610608576040517f08c379a00000000000000000000000000000000000000000000000000000000081526004016105ff90611583565b60405180910390fd5b5f838390501161064d576040517f08c379a0000000000000000000000000000000000000000000000000000000008152600401610644906115eb565b60405180910390fd5b60016005811115610661576106606110c9565b5b816004015f9054906101000a900460ff166005811115610684576106836110c9565b5b146106c4576040517f08c379a00000000000000000000000000000000000000000000000000000000081526004016106bb906114b3565b60405180910390fd5b82828260030191826106d79291906117e8565b506002816004015f6101000a81548160ff021916908360058111156106ff576106fe6110c9565b5b0217905550806001015f9054906101000a900473ffffffffffffffffffffffffffffffffffffffff1673ffffffffffffffffffffffffffffffffffffffff16847fb2217a1ebc8d6435d328a4607aa9709269fe4cb393535a1675721d8431a5401885856040516107709291906118ef565b60405180910390a350505050565b5f5f5f8381526020019081526020015f206004015f9054906101000a900460ff169050919050565b60025f9054906101000a900473ffffffffffffffffffffffffffffffffffffffff1673ffffffffffffffffffffffffffffffffffffffff163373ffffffffffffffffffffffffffffffffffffffff1614610835576040517f08c379a000000000000000000000000000000000000000000000000000000000815260040161082c9061151b565b60405180910390fd5b5f8111610877576040517f08c379a000000000000000000000000000000000000000000000000000000000815260040161086e9061195b565b60405180910390fd5b5f73ffffffffffffffffffffffffffffffffffffffff168273ffffffffffffffffffffffffffffffffffffffff16036108e5576040517f08c379a00000000000000000000000000000000000000000000000000000000081526004016108dc906119c3565b60405180910390fd5b60015f8154809291906108f790611a0e565b919050555060045f9054906101000a900473ffffffffffffffffffffffffffffffffffffffff1673ffffffffffffffffffffffffffffffffffffffff166323b872dd3330846040518463ffffffff1660e01b815260040161095a93929190611a55565b6020604051808303815f875af1158015610976573d5f5f3e3d5ffd5b505050506040513d601f19601f8201168201806040525081019061099a9190611abf565b6109d9576040517f08c379a00000000000000000000000000000000000000000000000000000000081526004016109d090611b34565b60405180910390fd5b6040518060a0016040528060015481526020018373ffffffffffffffffffffffffffffffffffffffff16815260200182815260200160405180602001604052805f815250815260200160016005811115610a3657610a356110c9565b5b8152505f5f60015481526020019081526020015f205f820151815f01556020820151816001015f6101000a81548173ffffffffffffffffffffffffffffffffffffffff021916908373ffffffffffffffffffffffffffffffffffffffff160217905550604082015181600201556060820151816003019081610ab89190611b52565b506080820151816004015f6101000a81548160ff02191690836005811115610ae357610ae26110c9565b5b02179055509050508173ffffffffffffffffffffffffffffffffffffffff166001547fd3a367dce916d996d5070b966e34d930be36eb1370f69f7d1a3d950eadda3cc683604051610b349190611317565b60405180910390a35050565b60035f9054906101000a900473ffffffffffffffffffffffffffffffffffffffff1681565b5f5f5f8381526020019081526020015f209050806001015f9054906101000a900473ffffffffffffffffffffffffffffffffffffffff1673ffffffffffffffffffffffffffffffffffffffff163373ffffffffffffffffffffffffffffffffffffffff1614610c09576040517f08c379a0000000000000000000000000000000000000000000000000000000008152600401610c0090611583565b60405180910390fd5b60036005811115610c1d57610c1c6110c9565b5b816004015f9054906101000a900460ff166005811115610c4057610c3f6110c9565b5b14610c80576040517f08c379a0000000000000000000000000000000000000000000000000000000008152600401610c7790611c6b565b60405180910390fd5b6005816004015f6101000a81548160ff02191690836005811115610ca757610ca66110c9565b5b021790555060045f9054906101000a900473ffffffffffffffffffffffffffffffffffffffff1673ffffffffffffffffffffffffffffffffffffffff1663a9059cbb826001015f9054906101000a900473ffffffffffffffffffffffffffffffffffffffff1683600201546040518363ffffffff1660e01b8152600401610d2f929190611c89565b6020604051808303815f875af1158015610d4b573d5f5f3e3d5ffd5b505050506040513d601f19601f82011682018060405250810190610d6f9190611abf565b610dae576040517f08c379a0000000000000000000000000000000000000000000000000000000008152600401610da590611cfa565b60405180910390fd5b817f952b264c8e0a06cddb4bbaa6d6af1d565145329fd95bbe72cb2b53942b2dc96660405160405180910390a25050565b60035f9054906101000a900473ffffffffffffffffffffffffffffffffffffffff1673ffffffffffffffffffffffffffffffffffffffff163373ffffffffffffffffffffffffffffffffffffffff1614610e6e576040517f08c379a0000000000000000000000000000000000000000000000000000000008152600401610e659061144b565b60405180910390fd5b5f5f5f8381526020019081526020015f20905060026005811115610e9557610e946110c9565b5b816004015f9054906101000a900460ff166005811115610eb857610eb76110c9565b5b14610ef8576040517f08c379a0000000000000000000000000000000000000000000000000000000008152600401610eef906114b3565b60405180910390fd5b6004816004015f6101000a81548160ff02191690836005811115610f1f57610f1e6110c9565b5b0217905550817f553761f03d0f31b0f2921be0776c815cc8879c29c990736e529634a2c26add8860405160405180910390a25050565b60015481565b60025f9054906101000a900473ffffffffffffffffffffffffffffffffffffffff1681565b60045f9054906101000a900473ffffffffffffffffffffffffffffffffffffffff1681565b5f5ffd5b5f5ffd5b5f819050919050565b610fbf81610fad565b8114610fc9575f5ffd5b50565b5f81359050610fda81610fb6565b92915050565b5f60208284031215610ff557610ff4610fa5565b5b5f61100284828501610fcc565b91505092915050565b61101481610fad565b82525050565b5f73ffffffffffffffffffffffffffffffffffffffff82169050919050565b5f6110438261101a565b9050919050565b61105381611039565b82525050565b5f81519050919050565b5f82825260208201905092915050565b8281835e5f83830152505050565b5f601f19601f8301169050919050565b5f61109b82611059565b6110a58185611063565b93506110b5818560208601611073565b6110be81611081565b840191505092915050565b7f4e487b71000000000000000000000000000000000000000000000000000000005f52602160045260245ffd5b60068110611107576111066110c9565b5b50565b5f819050611117826110f6565b919050565b5f6111268261110a565b9050919050565b6111368161111c565b82525050565b5f60a08201905061114f5f83018861100b565b61115c602083018761104a565b611169604083018661100b565b818103606083015261117b8185611091565b905061118a608083018461112d565b9695505050505050565b61119d81611039565b81146111a7575f5ffd5b50565b5f813590506111b881611194565b92915050565b5f602082840312156111d3576111d2610fa5565b5b5f6111e0848285016111aa565b91505092915050565b5f5ffd5b5f5ffd5b5f5ffd5b5f5f83601f84011261120a576112096111e9565b5b8235905067ffffffffffffffff811115611227576112266111ed565b5b602083019150836001820283011115611243576112426111f1565b5b9250929050565b5f5f5f6040848603121561126157611260610fa5565b5b5f61126e86828701610fcc565b935050602084013567ffffffffffffffff81111561128f5761128e610fa9565b5b61129b868287016111f5565b92509250509250925092565b5f6020820190506112ba5f83018461112d565b92915050565b5f5f604083850312156112d6576112d5610fa5565b5b5f6112e3858286016111aa565b92505060206112f485828601610fcc565b9150509250929050565b5f6020820190506113115f83018461104a565b92915050565b5f60208201905061132a5f83018461100b565b92915050565b5f819050919050565b5f61135361134e6113498461101a565b611330565b61101a565b9050919050565b5f61136482611339565b9050919050565b5f6113758261135a565b9050919050565b6113858161136b565b82525050565b5f60208201905061139e5f83018461137c565b92915050565b7f4e487b71000000000000000000000000000000000000000000000000000000005f52602260045260245ffd5b5f60028204905060018216806113e857607f821691505b6020821081036113fb576113fa6113a4565b5b50919050565b7f4e6f7420776f726b666c6f7700000000000000000000000000000000000000005f82015250565b5f611435600c83611063565b915061144082611401565b602082019050919050565b5f6020820190508181035f83015261146281611429565b9050919050565b7f496e76616c6964207374617465000000000000000000000000000000000000005f82015250565b5f61149d600d83611063565b91506114a882611469565b602082019050919050565b5f6020820190508181035f8301526114ca81611491565b9050919050565b7f4e6f742061646d696e00000000000000000000000000000000000000000000005f82015250565b5f611505600983611063565b9150611510826114d1565b602082019050919050565b5f6020820190508181035f830152611532816114f9565b9050919050565b7f4e6f742062656e656669636961727900000000000000000000000000000000005f82015250565b5f61156d600f83611063565b915061157882611539565b602082019050919050565b5f6020820190508181035f83015261159a81611561565b9050919050565b7f456d7074792070726f6f660000000000000000000000000000000000000000005f82015250565b5f6115d5600b83611063565b91506115e0826115a1565b602082019050919050565b5f6020820190508181035f830152611602816115c9565b9050919050565b5f82905092915050565b7f4e487b71000000000000000000000000000000000000000000000000000000005f52604160045260245ffd5b5f819050815f5260205f209050919050565b5f6020601f8301049050919050565b5f82821b905092915050565b5f6008830261169c7fffffffffffffffffffffffffffffffffffffffffffffffffffffffffffffffff82611661565b6116a68683611661565b95508019841693508086168417925050509392505050565b5f6116d86116d36116ce84610fad565b611330565b610fad565b9050919050565b5f819050919050565b6116f1836116be565b6117056116fd826116df565b84845461166d565b825550505050565b5f5f905090565b61171c61170d565b6117278184846116e8565b505050565b5f5b8281101561174d576117425f828401611714565b60018101905061172e565b505050565b601f8211156117a0578282111561179f5761176c81611640565b61177583611652565b61177e85611652565b602086101561178b575f90505b80830161179a8284038261172c565b505050505b5b505050565b5f82821c905092915050565b5f6117c05f19846008026117a5565b1980831691505092915050565b5f6117d883836117b1565b9150826002028217905092915050565b6117f28383611609565b67ffffffffffffffff81111561180b5761180a611613565b5b61181582546113d1565b611820828285611752565b5f601f83116001811461184d575f841561183b578287013590505b61184585826117cd565b8655506118ac565b601f19841661185b86611640565b5f5b828110156118825784890135825560018201915060208501945060208101905061185d565b8683101561189f578489013561189b601f8916826117b1565b8355505b6001600288020188555050505b50505050505050565b828183375f83830152505050565b5f6118ce8385611063565b93506118db8385846118b5565b6118e483611081565b840190509392505050565b5f6020820190508181035f8301526119088184866118c3565b90509392505050565b7f416d6f756e74206d757374206265203e203000000000000000000000000000005f82015250565b5f611945601283611063565b915061195082611911565b602082019050919050565b5f6020820190508181035f83015261197281611939565b9050919050565b7f496e76616c69642062656e6566696369617279000000000000000000000000005f82015250565b5f6119ad601383611063565b91506119b882611979565b602082019050919050565b5f6020820190508181035f8301526119da816119a1565b9050919050565b7f4e487b71000000000000000000000000000000000000000000000000000000005f52601160045260245ffd5b5f611a1882610fad565b91507fffffffffffffffffffffffffffffffffffffffffffffffffffffffffffffffff8203611a4a57611a496119e1565b5b600182019050919050565b5f606082019050611a685f83018661104a565b611a75602083018561104a565b611a82604083018461100b565b949350505050565b5f8115159050919050565b611a9e81611a8a565b8114611aa8575f5ffd5b50565b5f81519050611ab981611a95565b92915050565b5f60208284031215611ad457611ad3610fa5565b5b5f611ae184828501611aab565b91505092915050565b7f546f6b656e207472616e73666572206661696c656400000000000000000000005f82015250565b5f611b1e601583611063565b9150611b2982611aea565b602082019050919050565b5f6020820190508181035f830152611b4b81611b12565b9050919050565b611b5b82611059565b67ffffffffffffffff811115611b7457611b73611613565b5b611b7e82546113d1565b611b89828285611752565b5f60209050601f831160018114611bba575f8415611ba8578287015190505b611bb285826117cd565b865550611c19565b601f198416611bc886611640565b5f5b82811015611bef57848901518255600182019150602085019450602081019050611bca565b86831015611c0c5784890151611c08601f8916826117b1565b8355505b6001600288020188555050505b505050505050565b7f4e6f7420617070726f76656400000000000000000000000000000000000000005f82015250565b5f611c55600c83611063565b9150611c6082611c21565b602082019050919050565b5f6020820190508181035f830152611c8281611c49565b9050919050565b5f604082019050611c9c5f83018561104a565b611ca9602083018461100b565b9392505050565b7f546f6b656e207472616e666572206661696c65640000000000000000000000005f82015250565b5f611ce4601483611063565b9150611cef82611cb0565b602082019050919050565b5f6020820190508181035f830152611d1181611cd8565b905091905056fea26469706673582212202032982c3bd8b0f6174eb3fc2d81553a8a3f97d454df9d4cb106ef79aa2780f464736f6c63430008210033","linkReferences":{}},"methodIdentifiers":{"admin()":"f851a440","approveEscrow(uint256)":"03fce7ef","createEscrow(address,uint256)":"4614874e","escrowCounter()":"c7ceafea","escrows(uint256)":"012f52ee","getEscrowState(uint256)":"3a49995b","rejectEscrow(uint256)":"75aab331","releaseFunds(uint256)":"4d68282f","setWorkflowAddress(address)":"13a9aba2","submitProof(uint256,string)":"2af00510","token()":"fc0c546a","workflowAddress()":"4c17ecbf"},"id":22}